S0130000696E7465727275707431322E73726563C1
S11300000C942A000C9436000C9434000C943400A4
S11300100C9434000C9434000C9434000C9434008C
S11300200C9434000C9434000C9434000C9434007C
S11300300C9434000C9434000C9434000C9434006C
S11300400C9434000C9434000C9434000C9434005C
S11300500C94340011241FBECFE5D8E0DEBFCDBF21
S11300600E9453000C9481000C9400001F920F9284
S11300700FB60F9211242F938F939F9395B381E022
S1130080892785BB2FE788E391E021508040904089
S1130090E1F700C000009F918F912F910F900FBE48
S11300A00F901F90189587E08ABB81E084BB11BA3A
S11300B084E082BB80E48BBF83E085BF789421E039
S11300C092E084E02BBB3FEF41EE54E031504040DE
S11300D05040E1F700C000009BBB3FEF41EE54E00D
S11300E0315040405040E1F700C000008BBB3FEF6F
S11300F041EE54E0315040405040E1F700C0000070
S1090100E1CFF894FFCFEB
S9030000FC
